{
	"getEvenNO/evenNO.sol": {
		"longloop": {
			"abi": [
				{
					"inputs": [],
					"name": "evennumber",
					"outputs": [
						{
							"internalType": "uint256",
							"name": "",
							"type": "uint256"
						}
					],
					"stateMutability": "view",
					"type": "function"
				},
				{
					"inputs": [
						{
							"internalType": "uint256",
							"name": "userinput",
							"type": "uint256"
						}
					],
					"name": "loopNumblist",
					"outputs": [
						{
							"internalType": "bool",
							"name": "",
							"type": "bool"
						}
					],
					"stateMutability": "view",
					"type": "function"
				}
			],
			"devdoc": {
				"kind": "dev",
				"methods": {},
				"version": 1
			},
			"evm": {
				"assembly": "    /* \"getEvenNO/evenNO.sol\":60:1193  contract longloop {... */\n  mstore(0x40, 0x80)\n    /* \"getEvenNO/evenNO.sol\":85:214  uint[] longlist  = [1, 2, 3, 4, 5, 6, 7, 8, 9,10, 11, 12, 13, 14, 15, 16, 17, 18, 19, 20, 21, 22, 23, 24, 25, 26, 27, 28, 29, 30] */\n  mload(0x40)\n  dup1\n  0x03c0\n  add\n  0x40\n  mstore\n  dup1\n    /* \"getEvenNO/evenNO.sol\":105:106  1 */\n  0x01\n    /* \"getEvenNO/evenNO.sol\":85:214  uint[] longlist  = [1, 2, 3, 4, 5, 6, 7, 8, 9,10, 11, 12, 13, 14, 15, 16, 17, 18, 19, 20, 21, 22, 23, 24, 25, 26, 27, 28, 29, 30] */\n  0xff\n  and\n  dup2\n  mstore\n  0x20\n  add\n    /* \"getEvenNO/evenNO.sol\":108:109  2 */\n  0x02\n    /* \"getEvenNO/evenNO.sol\":85:214  uint[] longlist  = [1, 2, 3, 4, 5, 6, 7, 8, 9,10, 11, 12, 13, 14, 15, 16, 17, 18, 19, 20, 21, 22, 23, 24, 25, 26, 27, 28, 29, 30] */\n  0xff\n  and\n  dup2\n  mstore\n  0x20\n  add\n    /* \"getEvenNO/evenNO.sol\":111:112  3 */\n  0x03\n    /* \"getEvenNO/evenNO.sol\":85:214  uint[] longlist  = [1, 2, 3, 4, 5, 6, 7, 8, 9,10, 11, 12, 13, 14, 15, 16, 17, 18, 19, 20, 21, 22, 23, 24, 25, 26, 27, 28, 29, 30] */\n  0xff\n  and\n  dup2\n  mstore\n  0x20\n  add\n    /* \"getEvenNO/evenNO.sol\":114:115  4 */\n  0x04\n    /* \"getEvenNO/evenNO.sol\":85:214  uint[] longlist  = [1, 2, 3, 4, 5, 6, 7, 8, 9,10, 11, 12, 13, 14, 15, 16, 17, 18, 19, 20, 21, 22, 23, 24, 25, 26, 27, 28, 29, 30] */\n  0xff\n  and\n  dup2\n  mstore\n  0x20\n  add\n    /* \"getEvenNO/evenNO.sol\":117:118  5 */\n  0x05\n    /* \"getEvenNO/evenNO.sol\":85:214  uint[] longlist  = [1, 2, 3, 4, 5, 6, 7, 8, 9,10, 11, 12, 13, 14, 15, 16, 17, 18, 19, 20, 21, 22, 23, 24, 25, 26, 27, 28, 29, 30] */\n  0xff\n  and\n  dup2\n  mstore\n  0x20\n  add\n    /* \"getEvenNO/evenNO.sol\":120:121  6 */\n  0x06\n    /* \"getEvenNO/evenNO.sol\":85:214  uint[] longlist  = [1, 2, 3, 4, 5, 6, 7, 8, 9,10, 11, 12, 13, 14, 15, 16, 17, 18, 19, 20, 21, 22, 23, 24, 25, 26, 27, 28, 29, 30] */\n  0xff\n  and\n  dup2\n  mstore\n  0x20\n  add\n    /* \"getEvenNO/evenNO.sol\":123:124  7 */\n  0x07\n    /* \"getEvenNO/evenNO.sol\":85:214  uint[] longlist  = [1, 2, 3, 4, 5, 6, 7, 8, 9,10, 11, 12, 13, 14, 15, 16, 17, 18, 19, 20, 21, 22, 23, 24, 25, 26, 27, 28, 29, 30] */\n  0xff\n  and\n  dup2\n  mstore\n  0x20\n  add\n    /* \"getEvenNO/evenNO.sol\":126:127  8 */\n  0x08\n    /* \"getEvenNO/evenNO.sol\":85:214  uint[] longlist  = [1, 2, 3, 4, 5, 6, 7, 8, 9,10, 11, 12, 13, 14, 15, 16, 17, 18, 19, 20, 21, 22, 23, 24, 25, 26, 27, 28, 29, 30] */\n  0xff\n  and\n  dup2\n  mstore\n  0x20\n  add\n    /* \"getEvenNO/evenNO.sol\":129:130  9 */\n  0x09\n    /* \"getEvenNO/evenNO.sol\":85:214  uint[] longlist  = [1, 2, 3, 4, 5, 6, 7, 8, 9,10, 11, 12, 13, 14, 15, 16, 17, 18, 19, 20, 21, 22, 23, 24, 25, 26, 27, 28, 29, 30] */\n  0xff\n  and\n  dup2\n  mstore\n  0x20\n  add\n    /* \"getEvenNO/evenNO.sol\":131:133  10 */\n  0x0a\n    /* \"getEvenNO/evenNO.sol\":85:214  uint[] longlist  = [1, 2, 3, 4, 5, 6, 7, 8, 9,10, 11, 12, 13, 14, 15, 16, 17, 18, 19, 20, 21, 22, 23, 24, 25, 26, 27, 28, 29, 30] */\n  0xff\n  and\n  dup2\n  mstore\n  0x20\n  add\n    /* \"getEvenNO/evenNO.sol\":135:137  11 */\n  0x0b\n    /* \"getEvenNO/evenNO.sol\":85:214  uint[] longlist  = [1, 2, 3, 4, 5, 6, 7, 8, 9,10, 11, 12, 13, 14, 15, 16, 17, 18, 19, 20, 21, 22, 23, 24, 25, 26, 27, 28, 29, 30] */\n  0xff\n  and\n  dup2\n  mstore\n  0x20\n  add\n    /* \"getEvenNO/evenNO.sol\":139:141  12 */\n  0x0c\n    /* \"getEvenNO/evenNO.sol\":85:214  uint[] longlist  = [1, 2, 3, 4, 5, 6, 7, 8, 9,10, 11, 12, 13, 14, 15, 16, 17, 18, 19, 20, 21, 22, 23, 24, 25, 26, 27, 28, 29, 30] */\n  0xff\n  and\n  dup2\n  mstore\n  0x20\n  add\n    /* \"getEvenNO/evenNO.sol\":143:145  13 */\n  0x0d\n    /* \"getEvenNO/evenNO.sol\":85:214  uint[] longlist  = [1, 2, 3, 4, 5, 6, 7, 8, 9,10, 11, 12, 13, 14, 15, 16, 17, 18, 19, 20, 21, 22, 23, 24, 25, 26, 27, 28, 29, 30] */\n  0xff\n  and\n  dup2\n  mstore\n  0x20\n  add\n    /* \"getEvenNO/evenNO.sol\":147:149  14 */\n  0x0e\n    /* \"getEvenNO/evenNO.sol\":85:214  uint[] longlist  = [1, 2, 3, 4, 5, 6, 7, 8, 9,10, 11, 12, 13, 14, 15, 16, 17, 18, 19, 20, 21, 22, 23, 24, 25, 26, 27, 28, 29, 30] */\n  0xff\n  and\n  dup2\n  mstore\n  0x20\n  add\n    /* \"getEvenNO/evenNO.sol\":151:153  15 */\n  0x0f\n    /* \"getEvenNO/evenNO.sol\":85:214  uint[] longlist  = [1, 2, 3, 4, 5, 6, 7, 8, 9,10, 11, 12, 13, 14, 15, 16, 17, 18, 19, 20, 21, 22, 23, 24, 25, 26, 27, 28, 29, 30] */\n  0xff\n  and\n  dup2\n  mstore\n  0x20\n  add\n    /* \"getEvenNO/evenNO.sol\":155:157  16 */\n  0x10\n    /* \"getEvenNO/evenNO.sol\":85:214  uint[] longlist  = [1, 2, 3, 4, 5, 6, 7, 8, 9,10, 11, 12, 13, 14, 15, 16, 17, 18, 19, 20, 21, 22, 23, 24, 25, 26, 27, 28, 29, 30] */\n  0xff\n  and\n  dup2\n  mstore\n  0x20\n  add\n    /* \"getEvenNO/evenNO.sol\":159:161  17 */\n  0x11\n    /* \"getEvenNO/evenNO.sol\":85:214  uint[] longlist  = [1, 2, 3, 4, 5, 6, 7, 8, 9,10, 11, 12, 13, 14, 15, 16, 17, 18, 19, 20, 21, 22, 23, 24, 25, 26, 27, 28, 29, 30] */\n  0xff\n  and\n  dup2\n  mstore\n  0x20\n  add\n    /* \"getEvenNO/evenNO.sol\":163:165  18 */\n  0x12\n    /* \"getEvenNO/evenNO.sol\":85:214  uint[] longlist  = [1, 2, 3, 4, 5, 6, 7, 8, 9,10, 11, 12, 13, 14, 15, 16, 17, 18, 19, 20, 21, 22, 23, 24, 25, 26, 27, 28, 29, 30] */\n  0xff\n  and\n  dup2\n  mstore\n  0x20\n  add\n    /* \"getEvenNO/evenNO.sol\":167:169  19 */\n  0x13\n    /* \"getEvenNO/evenNO.sol\":85:214  uint[] longlist  = [1, 2, 3, 4, 5, 6, 7, 8, 9,10, 11, 12, 13, 14, 15, 16, 17, 18, 19, 20, 21, 22, 23, 24, 25, 26, 27, 28, 29, 30] */\n  0xff\n  and\n  dup2\n  mstore\n  0x20\n  add\n    /* \"getEvenNO/evenNO.sol\":171:173  20 */\n  0x14\n    /* \"getEvenNO/evenNO.sol\":85:214  uint[] longlist  = [1, 2, 3, 4, 5, 6, 7, 8, 9,10, 11, 12, 13, 14, 15, 16, 17, 18, 19, 20, 21, 22, 23, 24, 25, 26, 27, 28, 29, 30] */\n  0xff\n  and\n  dup2\n  mstore\n  0x20\n  add\n    /* \"getEvenNO/evenNO.sol\":175:177  21 */\n  0x15\n    /* \"getEvenNO/evenNO.sol\":85:214  uint[] longlist  = [1, 2, 3, 4, 5, 6, 7, 8, 9,10, 11, 12, 13, 14, 15, 16, 17, 18, 19, 20, 21, 22, 23, 24, 25, 26, 27, 28, 29, 30] */\n  0xff\n  and\n  dup2\n  mstore\n  0x20\n  add\n    /* \"getEvenNO/evenNO.sol\":179:181  22 */\n  0x16\n    /* \"getEvenNO/evenNO.sol\":85:214  uint[] longlist  = [1, 2, 3, 4, 5, 6, 7, 8, 9,10, 11, 12, 13, 14, 15, 16, 17, 18, 19, 20, 21, 22, 23, 24, 25, 26, 27, 28, 29, 30] */\n  0xff\n  and\n  dup2\n  mstore\n  0x20\n  add\n    /* \"getEvenNO/evenNO.sol\":183:185  23 */\n  0x17\n    /* \"getEvenNO/evenNO.sol\":85:214  uint[] longlist  = [1, 2, 3, 4, 5, 6, 7, 8, 9,10, 11, 12, 13, 14, 15, 16, 17, 18, 19, 20, 21, 22, 23, 24, 25, 26, 27, 28, 29, 30] */\n  0xff\n  and\n  dup2\n  mstore\n  0x20\n  add\n    /* \"getEvenNO/evenNO.sol\":187:189  24 */\n  0x18\n    /* \"getEvenNO/evenNO.sol\":85:214  uint[] longlist  = [1, 2, 3, 4, 5, 6, 7, 8, 9,10, 11, 12, 13, 14, 15, 16, 17, 18, 19, 20, 21, 22, 23, 24, 25, 26, 27, 28, 29, 30] */\n  0xff\n  and\n  dup2\n  mstore\n  0x20\n  add\n    /* \"getEvenNO/evenNO.sol\":191:193  25 */\n  0x19\n    /* \"getEvenNO/evenNO.sol\":85:214  uint[] longlist  = [1, 2, 3, 4, 5, 6, 7, 8, 9,10, 11, 12, 13, 14, 15, 16, 17, 18, 19, 20, 21, 22, 23, 24, 25, 26, 27, 28, 29, 30] */\n  0xff\n  and\n  dup2\n  mstore\n  0x20\n  add\n    /* \"getEvenNO/evenNO.sol\":195:197  26 */\n  0x1a\n    /* \"getEvenNO/evenNO.sol\":85:214  uint[] longlist  = [1, 2, 3, 4, 5, 6, 7, 8, 9,10, 11, 12, 13, 14, 15, 16, 17, 18, 19, 20, 21, 22, 23, 24, 25, 26, 27, 28, 29, 30] */\n  0xff\n  and\n  dup2\n  mstore\n  0x20\n  add\n    /* \"getEvenNO/evenNO.sol\":199:201  27 */\n  0x1b\n    /* \"getEvenNO/evenNO.sol\":85:214  uint[] longlist  = [1, 2, 3, 4, 5, 6, 7, 8, 9,10, 11, 12, 13, 14, 15, 16, 17, 18, 19, 20, 21, 22, 23, 24, 25, 26, 27, 28, 29, 30] */\n  0xff\n  and\n  dup2\n  mstore\n  0x20\n  add\n    /* \"getEvenNO/evenNO.sol\":203:205  28 */\n  0x1c\n    /* \"getEvenNO/evenNO.sol\":85:214  uint[] longlist  = [1, 2, 3, 4, 5, 6, 7, 8, 9,10, 11, 12, 13, 14, 15, 16, 17, 18, 19, 20, 21, 22, 23, 24, 25, 26, 27, 28, 29, 30] */\n  0xff\n  and\n  dup2\n  mstore\n  0x20\n  add\n    /* \"getEvenNO/evenNO.sol\":207:209  29 */\n  0x1d\n    /* \"getEvenNO/evenNO.sol\":85:214  uint[] longlist  = [1, 2, 3, 4, 5, 6, 7, 8, 9,10, 11, 12, 13, 14, 15, 16, 17, 18, 19, 20, 21, 22, 23, 24, 25, 26, 27, 28, 29, 30] */\n  0xff\n  and\n  dup2\n  mstore\n  0x20\n  add\n    /* \"getEvenNO/evenNO.sol\":211:213  30 */\n  0x1e\n    /* \"getEvenNO/evenNO.sol\":85:214  uint[] longlist  = [1, 2, 3, 4, 5, 6, 7, 8, 9,10, 11, 12, 13, 14, 15, 16, 17, 18, 19, 20, 21, 22, 23, 24, 25, 26, 27, 28, 29, 30] */\n  0xff\n  and\n  dup2\n  mstore\n  pop\n  0x00\n  swap1\n  0x1e\n  tag_1\n  swap3\n  swap2\n  swap1\n  tag_2\n  jump\t// in\ntag_1:\n  pop\n    /* \"getEvenNO/evenNO.sol\":221:255  uint[] numberlist = [1, 4, 34, 56] */\n  mload(0x40)\n  dup1\n  0x80\n  add\n  0x40\n  mstore\n  dup1\n    /* \"getEvenNO/evenNO.sol\":242:243  1 */\n  0x01\n    /* \"getEvenNO/evenNO.sol\":221:255  uint[] numberlist = [1, 4, 34, 56] */\n  0xff\n  and\n  dup2\n  mstore\n  0x20\n  add\n    /* \"getEvenNO/evenNO.sol\":245:246  4 */\n  0x04\n    /* \"getEvenNO/evenNO.sol\":221:255  uint[] numberlist = [1, 4, 34, 56] */\n  0xff\n  and\n  dup2\n  mstore\n  0x20\n  add\n    /* \"getEvenNO/evenNO.sol\":248:250  34 */\n  0x22\n    /* \"getEvenNO/evenNO.sol\":221:255  uint[] numberlist = [1, 4, 34, 56] */\n  0xff\n  and\n  dup2\n  mstore\n  0x20\n  add\n    /* \"getEvenNO/evenNO.sol\":252:254  56 */\n  0x38\n    /* \"getEvenNO/evenNO.sol\":221:255  uint[] numberlist = [1, 4, 34, 56] */\n  0xff\n  and\n  dup2\n  mstore\n  pop\n  0x01\n  swap1\n  0x04\n  tag_3\n  swap3\n  swap2\n  swap1\n  tag_4\n  jump\t// in\ntag_3:\n  pop\n    /* \"getEvenNO/evenNO.sol\":60:1193  contract longloop {... */\n  callvalue\n  dup1\n  iszero\n  tag_5\n  jumpi\n  0x00\n  dup1\n  revert\ntag_5:\n  pop\n  jump(tag_6)\ntag_2:\n  dup3\n  dup1\n  sload\n  dup3\n  dup3\n  sstore\n  swap1\n  0x00\n  mstore\n  keccak256(0x00, 0x20)\n  swap1\n  dup2\n  add\n  swap3\n  dup3\n  iszero\n  tag_7\n  jumpi\n  swap2\n  0x20\n  mul\n  dup3\n  add\ntag_8:\n  dup3\n  dup2\n  gt\n  iszero\n  tag_9\n  jumpi\n  dup3\n  mload\n  dup3\n  swap1\n  0xff\n  and\n  swap1\n  sstore\n  swap2\n  0x20\n  add\n  swap2\n  swap1\n  0x01\n  add\n  swap1\n  jump(tag_8)\ntag_9:\ntag_7:\n  pop\n  swap1\n  pop\n  tag_10\n  swap2\n  swap1\n  tag_11\n  jump\t// in\ntag_10:\n  pop\n  swap1\n  jump\t// out\ntag_4:\n  dup3\n  dup1\n  sload\n  dup3\n  dup3\n  sstore\n  swap1\n  0x00\n  mstore\n  keccak256(0x00, 0x20)\n  swap1\n  dup2\n  add\n  swap3\n  dup3\n  iszero\n  tag_12\n  jumpi\n  swap2\n  0x20\n  mul\n  dup3\n  add\ntag_13:\n  dup3\n  dup2\n  gt\n  iszero\n  tag_14\n  jumpi\n  dup3\n  mload\n  dup3\n  swap1\n  0xff\n  and\n  swap1\n  sstore\n  swap2\n  0x20\n  add\n  swap2\n  swap1\n  0x01\n  add\n  swap1\n  jump(tag_13)\ntag_14:\ntag_12:\n  pop\n  swap1\n  pop\n  tag_15\n  swap2\n  swap1\n  tag_11\n  jump\t// in\ntag_15:\n  pop\n  swap1\n  jump\t// out\ntag_11:\ntag_16:\n  dup1\n  dup3\n  gt\n  iszero\n  tag_17\n  jumpi\n  0x00\n  dup2\n  0x00\n  swap1\n  sstore\n  pop\n  0x01\n  add\n  jump(tag_16)\ntag_17:\n  pop\n  swap1\n  jump\t// out\ntag_6:\n  dataSize(sub_0)\n  dup1\n  dataOffset(sub_0)\n  0x00\n  codecopy\n  0x00\n  return\nstop\n\nsub_0: assembly {\n        /* \"getEvenNO/evenNO.sol\":60:1193  contract longloop {... */\n      mstore(0x40, 0x80)\n      callvalue\n      dup1\n      iszero\n      tag_1\n      jumpi\n      0x00\n      dup1\n      revert\n    tag_1:\n      pop\n      jumpi(tag_2, lt(calldatasize, 0x04))\n      shr(0xe0, calldataload(0x00))\n      dup1\n      0x1dee3f59\n      eq\n      tag_3\n      jumpi\n      dup1\n      0x59899796\n      eq\n      tag_4\n      jumpi\n    tag_2:\n      0x00\n      dup1\n      revert\n        /* \"getEvenNO/evenNO.sol\":264:920  function loopNumblist(uint userinput)  public view returns(bool){... */\n    tag_3:\n      tag_5\n      0x04\n      dup1\n      calldatasize\n      sub\n      dup2\n      add\n      swap1\n      tag_6\n      swap2\n      swap1\n      tag_7\n      jump\t// in\n    tag_6:\n      tag_8\n      jump\t// in\n    tag_5:\n      mload(0x40)\n      tag_9\n      swap2\n      swap1\n      tag_10\n      jump\t// in\n    tag_9:\n      mload(0x40)\n      dup1\n      swap2\n      sub\n      swap1\n      return\n        /* \"getEvenNO/evenNO.sol\":928:1190  function evennumber() public view returns(uint) {... */\n    tag_4:\n      tag_11\n      tag_12\n      jump\t// in\n    tag_11:\n      mload(0x40)\n      tag_13\n      swap2\n      swap1\n      tag_14\n      jump\t// in\n    tag_13:\n      mload(0x40)\n      dup1\n      swap2\n      sub\n      swap1\n      return\n        /* \"getEvenNO/evenNO.sol\":264:920  function loopNumblist(uint userinput)  public view returns(bool){... */\n    tag_8:\n        /* \"getEvenNO/evenNO.sol\":323:327  bool */\n      0x00\n        /* \"getEvenNO/evenNO.sol\":380:386  uint i */\n      dup1\n        /* \"getEvenNO/evenNO.sol\":388:389  0 */\n      0x00\n        /* \"getEvenNO/evenNO.sol\":380:389  uint i =0 */\n      swap1\n      pop\n        /* \"getEvenNO/evenNO.sol\":394:404  numberlist */\n      0x01\n        /* \"getEvenNO/evenNO.sol\":394:411  numberlist.length */\n      dup1\n      sload\n      swap1\n      pop\n        /* \"getEvenNO/evenNO.sol\":391:392  i */\n      dup2\n        /* \"getEvenNO/evenNO.sol\":391:411  i< numberlist.length */\n      lt\n        /* \"getEvenNO/evenNO.sol\":375:738  for (uint i =0; i< numberlist.length; i++){... */\n      iszero\n      tag_17\n      jumpi\n        /* \"getEvenNO/evenNO.sol\":448:458  numberlist */\n      0x01\n        /* \"getEvenNO/evenNO.sol\":459:460  i */\n      dup2\n        /* \"getEvenNO/evenNO.sol\":448:461  numberlist[i] */\n      dup2\n      sload\n      dup2\n      lt\n      tag_19\n      jumpi\n      tag_20\n      tag_21\n      jump\t// in\n    tag_20:\n    tag_19:\n      swap1\n      0x00\n      mstore\n      keccak256(0x00, 0x20)\n      add\n      sload\n        /* \"getEvenNO/evenNO.sol\":435:444  userinput */\n      dup4\n        /* \"getEvenNO/evenNO.sol\":435:461  userinput == numberlist[i] */\n      sub\n        /* \"getEvenNO/evenNO.sol\":432:727  if(userinput == numberlist[i]){... */\n      tag_23\n      jumpi\n        /* \"getEvenNO/evenNO.sol\":488:492  true */\n      0x01\n        /* \"getEvenNO/evenNO.sol\":481:492  return true */\n      swap2\n      pop\n      pop\n      jump(tag_15)\n        /* \"getEvenNO/evenNO.sol\":432:727  if(userinput == numberlist[i]){... */\n    tag_23:\n        /* \"getEvenNO/evenNO.sol\":706:711  false */\n      0x00\n        /* \"getEvenNO/evenNO.sol\":699:711  return false */\n      swap2\n      pop\n      pop\n      jump(tag_15)\n        /* \"getEvenNO/evenNO.sol\":375:738  for (uint i =0; i< numberlist.length; i++){... */\n    tag_17:\n      pop\n        /* \"getEvenNO/evenNO.sol\":264:920  function loopNumblist(uint userinput)  public view returns(bool){... */\n    tag_15:\n      swap2\n      swap1\n      pop\n      jump\t// out\n        /* \"getEvenNO/evenNO.sol\":928:1190  function evennumber() public view returns(uint) {... */\n    tag_12:\n        /* \"getEvenNO/evenNO.sol\":970:974  uint */\n      0x00\n        /* \"getEvenNO/evenNO.sol\":987:1001  uint evencount */\n      dup1\n        /* \"getEvenNO/evenNO.sol\":1004:1005  0 */\n      0x00\n        /* \"getEvenNO/evenNO.sol\":987:1005  uint evencount = 0 */\n      swap1\n      pop\n        /* \"getEvenNO/evenNO.sol\":1021:1027  uint i */\n      0x00\n        /* \"getEvenNO/evenNO.sol\":1016:1156  for (uint i = 0; i<longlist.length; i++)  {... */\n    tag_28:\n        /* \"getEvenNO/evenNO.sol\":1035:1043  longlist */\n      0x00\n        /* \"getEvenNO/evenNO.sol\":1035:1050  longlist.length */\n      dup1\n      sload\n      swap1\n      pop\n        /* \"getEvenNO/evenNO.sol\":1033:1034  i */\n      dup2\n        /* \"getEvenNO/evenNO.sol\":1033:1050  i<longlist.length */\n      lt\n        /* \"getEvenNO/evenNO.sol\":1016:1156  for (uint i = 0; i<longlist.length; i++)  {... */\n      iszero\n      tag_29\n      jumpi\n        /* \"getEvenNO/evenNO.sol\":1096:1097  0 */\n      0x00\n        /* \"getEvenNO/evenNO.sol\":1091:1092  2 */\n      0x02\n        /* \"getEvenNO/evenNO.sol\":1077:1085  longlist */\n      0x00\n        /* \"getEvenNO/evenNO.sol\":1086:1087  i */\n      dup4\n        /* \"getEvenNO/evenNO.sol\":1077:1088  longlist[i] */\n      dup2\n      sload\n      dup2\n      lt\n      tag_31\n      jumpi\n      tag_32\n      tag_21\n      jump\t// in\n    tag_32:\n    tag_31:\n      swap1\n      0x00\n      mstore\n      keccak256(0x00, 0x20)\n      add\n      sload\n        /* \"getEvenNO/evenNO.sol\":1077:1092  longlist[i] % 2 */\n      tag_34\n      swap2\n      swap1\n      tag_35\n      jump\t// in\n    tag_34:\n        /* \"getEvenNO/evenNO.sol\":1077:1097  longlist[i] % 2 == 0 */\n      sub\n        /* \"getEvenNO/evenNO.sol\":1073:1145  if (longlist[i] % 2 == 0) {... */\n      tag_36\n      jumpi\n        /* \"getEvenNO/evenNO.sol\":1118:1129  evencount++ */\n      dup2\n      dup1\n      tag_37\n      swap1\n      tag_26\n      jump\t// in\n    tag_37:\n      swap3\n      pop\n      pop\n        /* \"getEvenNO/evenNO.sol\":1073:1145  if (longlist[i] % 2 == 0) {... */\n    tag_36:\n        /* \"getEvenNO/evenNO.sol\":1052:1055  i++ */\n      dup1\n      dup1\n      tag_38\n      swap1\n      tag_26\n      jump\t// in\n    tag_38:\n      swap2\n      pop\n      pop\n        /* \"getEvenNO/evenNO.sol\":1016:1156  for (uint i = 0; i<longlist.length; i++)  {... */\n      jump(tag_28)\n    tag_29:\n      pop\n        /* \"getEvenNO/evenNO.sol\":1173:1182  evencount */\n      dup1\n        /* \"getEvenNO/evenNO.sol\":1166:1182  return evencount */\n      swap2\n      pop\n      pop\n        /* \"getEvenNO/evenNO.sol\":928:1190  function evennumber() public view returns(uint) {... */\n      swap1\n      jump\t// out\n        /* \"#utility.yul\":88:205   */\n    tag_40:\n        /* \"#utility.yul\":197:198   */\n      0x00\n        /* \"#utility.yul\":194:195   */\n      dup1\n        /* \"#utility.yul\":187:199   */\n      revert\n        /* \"#utility.yul\":334:411   */\n    tag_42:\n        /* \"#utility.yul\":371:378   */\n      0x00\n        /* \"#utility.yul\":400:405   */\n      dup2\n        /* \"#utility.yul\":389:405   */\n      swap1\n      pop\n        /* \"#utility.yul\":334:411   */\n      swap2\n      swap1\n      pop\n      jump\t// out\n        /* \"#utility.yul\":417:539   */\n    tag_43:\n        /* \"#utility.yul\":490:514   */\n      tag_56\n        /* \"#utility.yul\":508:513   */\n      dup2\n        /* \"#utility.yul\":490:514   */\n      tag_42\n      jump\t// in\n    tag_56:\n        /* \"#utility.yul\":483:488   */\n      dup2\n        /* \"#utility.yul\":480:515   */\n      eq\n        /* \"#utility.yul\":470:533   */\n      tag_57\n      jumpi\n        /* \"#utility.yul\":529:530   */\n      0x00\n        /* \"#utility.yul\":526:527   */\n      dup1\n        /* \"#utility.yul\":519:531   */\n      revert\n        /* \"#utility.yul\":470:533   */\n    tag_57:\n        /* \"#utility.yul\":417:539   */\n      pop\n      jump\t// out\n        /* \"#utility.yul\":545:684   */\n    tag_44:\n        /* \"#utility.yul\":591:596   */\n      0x00\n        /* \"#utility.yul\":629:635   */\n      dup2\n        /* \"#utility.yul\":616:636   */\n      calldataload\n        /* \"#utility.yul\":607:636   */\n      swap1\n      pop\n        /* \"#utility.yul\":645:678   */\n      tag_59\n        /* \"#utility.yul\":672:677   */\n      dup2\n        /* \"#utility.yul\":645:678   */\n      tag_43\n      jump\t// in\n    tag_59:\n        /* \"#utility.yul\":545:684   */\n      swap3\n      swap2\n      pop\n      pop\n      jump\t// out\n        /* \"#utility.yul\":690:1019   */\n    tag_7:\n        /* \"#utility.yul\":749:755   */\n      0x00\n        /* \"#utility.yul\":798:800   */\n      0x20\n        /* \"#utility.yul\":786:795   */\n      dup3\n        /* \"#utility.yul\":777:784   */\n      dup5\n        /* \"#utility.yul\":773:796   */\n      sub\n        /* \"#utility.yul\":769:801   */\n      slt\n        /* \"#utility.yul\":766:885   */\n      iszero\n      tag_61\n      jumpi\n        /* \"#utility.yul\":804:883   */\n      tag_62\n      tag_40\n      jump\t// in\n    tag_62:\n        /* \"#utility.yul\":766:885   */\n    tag_61:\n        /* \"#utility.yul\":924:925   */\n      0x00\n        /* \"#utility.yul\":949:1002   */\n      tag_63\n        /* \"#utility.yul\":994:1001   */\n      dup5\n        /* \"#utility.yul\":985:991   */\n      dup3\n        /* \"#utility.yul\":974:983   */\n      dup6\n        /* \"#utility.yul\":970:992   */\n      add\n        /* \"#utility.yul\":949:1002   */\n      tag_44\n      jump\t// in\n    tag_63:\n        /* \"#utility.yul\":939:1002   */\n      swap2\n      pop\n        /* \"#utility.yul\":895:1012   */\n      pop\n        /* \"#utility.yul\":690:1019   */\n      swap3\n      swap2\n      pop\n      pop\n      jump\t// out\n        /* \"#utility.yul\":1025:1115   */\n    tag_45:\n        /* \"#utility.yul\":1059:1066   */\n      0x00\n        /* \"#utility.yul\":1102:1107   */\n      dup2\n        /* \"#utility.yul\":1095:1108   */\n      iszero\n        /* \"#utility.yul\":1088:1109   */\n      iszero\n        /* \"#utility.yul\":1077:1109   */\n      swap1\n      pop\n        /* \"#utility.yul\":1025:1115   */\n      swap2\n      swap1\n      pop\n      jump\t// out\n        /* \"#utility.yul\":1121:1230   */\n    tag_46:\n        /* \"#utility.yul\":1202:1223   */\n      tag_66\n        /* \"#utility.yul\":1217:1222   */\n      dup2\n        /* \"#utility.yul\":1202:1223   */\n      tag_45\n      jump\t// in\n    tag_66:\n        /* \"#utility.yul\":1197:1200   */\n      dup3\n        /* \"#utility.yul\":1190:1224   */\n      mstore\n        /* \"#utility.yul\":1121:1230   */\n      pop\n      pop\n      jump\t// out\n        /* \"#utility.yul\":1236:1446   */\n    tag_10:\n        /* \"#utility.yul\":1323:1327   */\n      0x00\n        /* \"#utility.yul\":1361:1363   */\n      0x20\n        /* \"#utility.yul\":1350:1359   */\n      dup3\n        /* \"#utility.yul\":1346:1364   */\n      add\n        /* \"#utility.yul\":1338:1364   */\n      swap1\n      pop\n        /* \"#utility.yul\":1374:1439   */\n      tag_68\n        /* \"#utility.yul\":1436:1437   */\n      0x00\n        /* \"#utility.yul\":1425:1434   */\n      dup4\n        /* \"#utility.yul\":1421:1438   */\n      add\n        /* \"#utility.yul\":1412:1418   */\n      dup5\n        /* \"#utility.yul\":1374:1439   */\n      tag_46\n      jump\t// in\n    tag_68:\n        /* \"#utility.yul\":1236:1446   */\n      swap3\n      swap2\n      pop\n      pop\n      jump\t// out\n        /* \"#utility.yul\":1452:1570   */\n    tag_47:\n        /* \"#utility.yul\":1539:1563   */\n      tag_70\n        /* \"#utility.yul\":1557:1562   */\n      dup2\n        /* \"#utility.yul\":1539:1563   */\n      tag_42\n      jump\t// in\n    tag_70:\n        /* \"#utility.yul\":1534:1537   */\n      dup3\n        /* \"#utility.yul\":1527:1564   */\n      mstore\n        /* \"#utility.yul\":1452:1570   */\n      pop\n      pop\n      jump\t// out\n        /* \"#utility.yul\":1576:1798   */\n    tag_14:\n        /* \"#utility.yul\":1669:1673   */\n      0x00\n        /* \"#utility.yul\":1707:1709   */\n      0x20\n        /* \"#utility.yul\":1696:1705   */\n      dup3\n        /* \"#utility.yul\":1692:1710   */\n      add\n        /* \"#utility.yul\":1684:1710   */\n      swap1\n      pop\n        /* \"#utility.yul\":1720:1791   */\n      tag_72\n        /* \"#utility.yul\":1788:1789   */\n      0x00\n        /* \"#utility.yul\":1777:1786   */\n      dup4\n        /* \"#utility.yul\":1773:1790   */\n      add\n        /* \"#utility.yul\":1764:1770   */\n      dup5\n        /* \"#utility.yul\":1720:1791   */\n      tag_47\n      jump\t// in\n    tag_72:\n        /* \"#utility.yul\":1576:1798   */\n      swap3\n      swap2\n      pop\n      pop\n      jump\t// out\n        /* \"#utility.yul\":1804:1984   */\n    tag_21:\n        /* \"#utility.yul\":1852:1929   */\n      0x4e487b7100000000000000000000000000000000000000000000000000000000\n        /* \"#utility.yul\":1849:1850   */\n      0x00\n        /* \"#utility.yul\":1842:1930   */\n      mstore\n        /* \"#utility.yul\":1949:1953   */\n      0x32\n        /* \"#utility.yul\":1946:1947   */\n      0x04\n        /* \"#utility.yul\":1939:1954   */\n      mstore\n        /* \"#utility.yul\":1973:1977   */\n      0x24\n        /* \"#utility.yul\":1970:1971   */\n      0x00\n        /* \"#utility.yul\":1963:1978   */\n      revert\n        /* \"#utility.yul\":1990:2170   */\n    tag_48:\n        /* \"#utility.yul\":2038:2115   */\n      0x4e487b7100000000000000000000000000000000000000000000000000000000\n        /* \"#utility.yul\":2035:2036   */\n      0x00\n        /* \"#utility.yul\":2028:2116   */\n      mstore\n        /* \"#utility.yul\":2135:2139   */\n      0x11\n        /* \"#utility.yul\":2132:2133   */\n      0x04\n        /* \"#utility.yul\":2125:2140   */\n      mstore\n        /* \"#utility.yul\":2159:2163   */\n      0x24\n        /* \"#utility.yul\":2156:2157   */\n      0x00\n        /* \"#utility.yul\":2149:2164   */\n      revert\n        /* \"#utility.yul\":2176:2409   */\n    tag_26:\n        /* \"#utility.yul\":2215:2218   */\n      0x00\n        /* \"#utility.yul\":2238:2262   */\n      tag_76\n        /* \"#utility.yul\":2256:2261   */\n      dup3\n        /* \"#utility.yul\":2238:2262   */\n      tag_42\n      jump\t// in\n    tag_76:\n        /* \"#utility.yul\":2229:2262   */\n      swap2\n      pop\n        /* \"#utility.yul\":2284:2350   */\n      0xffffffffffffffffffffffffffffffffffffffffffffffffffffffffffffffff\n        /* \"#utility.yul\":2277:2282   */\n      dup3\n        /* \"#utility.yul\":2274:2351   */\n      sub\n        /* \"#utility.yul\":2271:2374   */\n      tag_77\n      jumpi\n        /* \"#utility.yul\":2354:2372   */\n      tag_78\n      tag_48\n      jump\t// in\n    tag_78:\n        /* \"#utility.yul\":2271:2374   */\n    tag_77:\n        /* \"#utility.yul\":2401:2402   */\n      0x01\n        /* \"#utility.yul\":2394:2399   */\n      dup3\n        /* \"#utility.yul\":2390:2403   */\n      add\n        /* \"#utility.yul\":2383:2403   */\n      swap1\n      pop\n        /* \"#utility.yul\":2176:2409   */\n      swap2\n      swap1\n      pop\n      jump\t// out\n        /* \"#utility.yul\":2415:2595   */\n    tag_49:\n        /* \"#utility.yul\":2463:2540   */\n      0x4e487b7100000000000000000000000000000000000000000000000000000000\n        /* \"#utility.yul\":2460:2461   */\n      0x00\n        /* \"#utility.yul\":2453:2541   */\n      mstore\n        /* \"#utility.yul\":2560:2564   */\n      0x12\n        /* \"#utility.yul\":2557:2558   */\n      0x04\n        /* \"#utility.yul\":2550:2565   */\n      mstore\n        /* \"#utility.yul\":2584:2588   */\n      0x24\n        /* \"#utility.yul\":2581:2582   */\n      0x00\n        /* \"#utility.yul\":2574:2589   */\n      revert\n        /* \"#utility.yul\":2601:2777   */\n    tag_35:\n        /* \"#utility.yul\":2633:2634   */\n      0x00\n        /* \"#utility.yul\":2650:2670   */\n      tag_81\n        /* \"#utility.yul\":2668:2669   */\n      dup3\n        /* \"#utility.yul\":2650:2670   */\n      tag_42\n      jump\t// in\n    tag_81:\n        /* \"#utility.yul\":2645:2670   */\n      swap2\n      pop\n        /* \"#utility.yul\":2684:2704   */\n      tag_82\n        /* \"#utility.yul\":2702:2703   */\n      dup4\n        /* \"#utility.yul\":2684:2704   */\n      tag_42\n      jump\t// in\n    tag_82:\n        /* \"#utility.yul\":2679:2704   */\n      swap3\n      pop\n        /* \"#utility.yul\":2723:2724   */\n      dup3\n        /* \"#utility.yul\":2713:2748   */\n      tag_83\n      jumpi\n        /* \"#utility.yul\":2728:2746   */\n      tag_84\n      tag_49\n      jump\t// in\n    tag_84:\n        /* \"#utility.yul\":2713:2748   */\n    tag_83:\n        /* \"#utility.yul\":2769:2770   */\n      dup3\n        /* \"#utility.yul\":2766:2767   */\n      dup3\n        /* \"#utility.yul\":2762:2771   */\n      mod\n        /* \"#utility.yul\":2757:2771   */\n      swap1\n      pop\n        /* \"#utility.yul\":2601:2777   */\n      swap3\n      swap2\n      pop\n      pop\n      jump\t// out\n\n    auxdata: 0xa2646970667358221220638069504cc52ab59bd7514ab53f9dd55d0665f919874d7024106e3d0342383664736f6c634300080f0033\n}\n",
				"bytecode": {
					"linkReferences": {},
					"object": "6080604052604051806103c00160405280600160ff168152602001600260ff168152602001600360ff168152602001600460ff168152602001600560ff168152602001600660ff168152602001600760ff168152602001600860ff168152602001600960ff168152602001600a60ff168152602001600b60ff168152602001600c60ff168152602001600d60ff168152602001600e60ff168152602001600f60ff168152602001601060ff168152602001601160ff168152602001601260ff168152602001601360ff168152602001601460ff168152602001601560ff168152602001601660ff168152602001601760ff168152602001601860ff168152602001601960ff168152602001601a60ff168152602001601b60ff168152602001601c60ff168152602001601d60ff168152602001601e60ff16815250600090601e61014a92919061019f565b506040518060800160405280600160ff168152602001600460ff168152602001602260ff168152602001603860ff16815250600190600461018c9291906101f1565b5034801561019957600080fd5b50610260565b8280548282559060005260206000209081019282156101e0579160200282015b828111156101df578251829060ff169055916020019190600101906101bf565b5b5090506101ed9190610243565b5090565b828054828255906000526020600020908101928215610232579160200282015b82811115610231578251829060ff16905591602001919060010190610211565b5b50905061023f9190610243565b5090565b5b8082111561025c576000816000905550600101610244565b5090565b6103548061026f6000396000f3fe608060405234801561001057600080fd5b50600436106100365760003560e01c80631dee3f591461003b578063598997961461006b575b600080fd5b6100556004803603810190610050919061018b565b610089565b60405161006291906101d3565b60405180910390f35b6100736100dd565b60405161008091906101fd565b60405180910390f35b600080600090506001805490508110156100d657600181815481106100b1576100b0610218565b5b906000526020600020015483036100cc5760019150506100d8565b60009150506100d8565b505b919050565b6000806000905060005b60008054905081101561014857600060026000838154811061010c5761010b610218565b5b906000526020600020015461012191906102ed565b0361013557818061013190610276565b9250505b808061014090610276565b9150506100e7565b508091505090565b600080fd5b6000819050919050565b61016881610155565b811461017357600080fd5b50565b6000813590506101858161015f565b92915050565b6000602082840312156101a1576101a0610150565b5b60006101af84828501610176565b91505092915050565b60008115159050919050565b6101cd816101b8565b82525050565b60006020820190506101e860008301846101c4565b92915050565b6101f781610155565b82525050565b600060208201905061021260008301846101ee565b92915050565b7f4e487b7100000000000000000000000000000000000000000000000000000000600052603260045260246000fd5b7f4e487b7100000000000000000000000000000000000000000000000000000000600052601160045260246000fd5b600061028182610155565b91507fffffffffffffffffffffffffffffffffffffffffffffffffffffffffffffffff82036102b3576102b2610247565b5b600182019050919050565b7f4e487b7100000000000000000000000000000000000000000000000000000000600052601260045260246000fd5b60006102f882610155565b915061030383610155565b925082610313576103126102be565b5b82820690509291505056fea2646970667358221220638069504cc52ab59bd7514ab53f9dd55d0665f919874d7024106e3d0342383664736f6c634300080f0033",
					"opcodes": "PUSH1 0x80 PUSH1 0x40 MSTORE PUSH1 0x40 MLOAD DUP1 PUSH2 0x3C0 ADD PUSH1 0x40 MSTORE DUP1 PUSH1 0x1 PUSH1 0xFF AND DUP2 MSTORE PUSH1 0x20 ADD PUSH1 0x2 PUSH1 0xFF AND DUP2 MSTORE PUSH1 0x20 ADD PUSH1 0x3 PUSH1 0xFF AND DUP2 MSTORE PUSH1 0x20 ADD PUSH1 0x4 PUSH1 0xFF AND DUP2 MSTORE PUSH1 0x20 ADD PUSH1 0x5 PUSH1 0xFF AND DUP2 MSTORE PUSH1 0x20 ADD PUSH1 0x6 PUSH1 0xFF AND DUP2 MSTORE PUSH1 0x20 ADD PUSH1 0x7 PUSH1 0xFF AND DUP2 MSTORE PUSH1 0x20 ADD PUSH1 0x8 PUSH1 0xFF AND DUP2 MSTORE PUSH1 0x20 ADD PUSH1 0x9 PUSH1 0xFF AND DUP2 MSTORE PUSH1 0x20 ADD PUSH1 0xA PUSH1 0xFF AND DUP2 MSTORE PUSH1 0x20 ADD PUSH1 0xB PUSH1 0xFF AND DUP2 MSTORE PUSH1 0x20 ADD PUSH1 0xC PUSH1 0xFF AND DUP2 MSTORE PUSH1 0x20 ADD PUSH1 0xD PUSH1 0xFF AND DUP2 MSTORE PUSH1 0x20 ADD PUSH1 0xE PUSH1 0xFF AND DUP2 MSTORE PUSH1 0x20 ADD PUSH1 0xF PUSH1 0xFF AND DUP2 MSTORE PUSH1 0x20 ADD PUSH1 0x10 PUSH1 0xFF AND DUP2 MSTORE PUSH1 0x20 ADD PUSH1 0x11 PUSH1 0xFF AND DUP2 MSTORE PUSH1 0x20 ADD PUSH1 0x12 PUSH1 0xFF AND DUP2 MSTORE PUSH1 0x20 ADD PUSH1 0x13 PUSH1 0xFF AND DUP2 MSTORE PUSH1 0x20 ADD PUSH1 0x14 PUSH1 0xFF AND DUP2 MSTORE PUSH1 0x20 ADD PUSH1 0x15 PUSH1 0xFF AND DUP2 MSTORE PUSH1 0x20 ADD PUSH1 0x16 PUSH1 0xFF AND DUP2 MSTORE PUSH1 0x20 ADD PUSH1 0x17 PUSH1 0xFF AND DUP2 MSTORE PUSH1 0x20 ADD PUSH1 0x18 PUSH1 0xFF AND DUP2 MSTORE PUSH1 0x20 ADD PUSH1 0x19 PUSH1 0xFF AND DUP2 MSTORE PUSH1 0x20 ADD PUSH1 0x1A PUSH1 0xFF AND DUP2 MSTORE PUSH1 0x20 ADD PUSH1 0x1B PUSH1 0xFF AND DUP2 MSTORE PUSH1 0x20 ADD PUSH1 0x1C PUSH1 0xFF AND DUP2 MSTORE PUSH1 0x20 ADD PUSH1 0x1D PUSH1 0xFF AND DUP2 MSTORE PUSH1 0x20 ADD PUSH1 0x1E PUSH1 0xFF AND DUP2 MSTORE POP PUSH1 0x0 SWAP1 PUSH1 0x1E PUSH2 0x14A SWAP3 SWAP2 SWAP1 PUSH2 0x19F JUMP JUMPDEST POP PUSH1 0x40 MLOAD DUP1 PUSH1 0x80 ADD PUSH1 0x40 MSTORE DUP1 PUSH1 0x1 PUSH1 0xFF AND DUP2 MSTORE PUSH1 0x20 ADD PUSH1 0x4 PUSH1 0xFF AND DUP2 MSTORE PUSH1 0x20 ADD PUSH1 0x22 PUSH1 0xFF AND DUP2 MSTORE PUSH1 0x20 ADD PUSH1 0x38 PUSH1 0xFF AND DUP2 MSTORE POP PUSH1 0x1 SWAP1 PUSH1 0x4 PUSH2 0x18C SWAP3 SWAP2 SWAP1 PUSH2 0x1F1 JUMP JUMPDEST POP CALLVALUE DUP1 ISZERO PUSH2 0x199 JUMPI PUSH1 0x0 DUP1 REVERT JUMPDEST POP PUSH2 0x260 JUMP JUMPDEST DUP3 DUP1 SLOAD DUP3 DUP3 SSTORE SWAP1 PUSH1 0x0 MSTORE PUSH1 0x20 PUSH1 0x0 KECCAK256 SWAP1 DUP2 ADD SWAP3 DUP3 ISZERO PUSH2 0x1E0 JUMPI SWAP2 PUSH1 0x20 MUL DUP3 ADD JUMPDEST DUP3 DUP2 GT ISZERO PUSH2 0x1DF JUMPI DUP3 MLOAD DUP3 SWAP1 PUSH1 0xFF AND SWAP1 SSTORE SWAP2 PUSH1 0x20 ADD SWAP2 SWAP1 PUSH1 0x1 ADD SWAP1 PUSH2 0x1BF JUMP JUMPDEST JUMPDEST POP SWAP1 POP PUSH2 0x1ED SWAP2 SWAP1 PUSH2 0x243 JUMP JUMPDEST POP SWAP1 JUMP JUMPDEST DUP3 DUP1 SLOAD DUP3 DUP3 SSTORE SWAP1 PUSH1 0x0 MSTORE PUSH1 0x20 PUSH1 0x0 KECCAK256 SWAP1 DUP2 ADD SWAP3 DUP3 ISZERO PUSH2 0x232 JUMPI SWAP2 PUSH1 0x20 MUL DUP3 ADD JUMPDEST DUP3 DUP2 GT ISZERO PUSH2 0x231 JUMPI DUP3 MLOAD DUP3 SWAP1 PUSH1 0xFF AND SWAP1 SSTORE SWAP2 PUSH1 0x20 ADD SWAP2 SWAP1 PUSH1 0x1 ADD SWAP1 PUSH2 0x211 JUMP JUMPDEST JUMPDEST POP SWAP1 POP PUSH2 0x23F SWAP2 SWAP1 PUSH2 0x243 JUMP JUMPDEST POP SWAP1 JUMP JUMPDEST JUMPDEST DUP1 DUP3 GT ISZERO PUSH2 0x25C JUMPI PUSH1 0x0 DUP2 PUSH1 0x0 SWAP1 SSTORE POP PUSH1 0x1 ADD PUSH2 0x244 JUMP JUMPDEST POP SWAP1 JUMP JUMPDEST PUSH2 0x354 DUP1 PUSH2 0x26F PUSH1 0x0 CODECOPY PUSH1 0x0 RETURN INVALID PUSH1 0x80 PUSH1 0x40 MSTORE CALLVALUE DUP1 ISZERO PUSH2 0x10 JUMPI PUSH1 0x0 DUP1 REVERT JUMPDEST POP PUSH1 0x4 CALLDATASIZE LT PUSH2 0x36 JUMPI PUSH1 0x0 CALLDATALOAD PUSH1 0xE0 SHR DUP1 PUSH4 0x1DEE3F59 EQ PUSH2 0x3B JUMPI DUP1 PUSH4 0x59899796 EQ PUSH2 0x6B JUMPI JUMPDEST PUSH1 0x0 DUP1 REVERT JUMPDEST PUSH2 0x55 PUSH1 0x4 DUP1 CALLDATASIZE SUB DUP2 ADD SWAP1 PUSH2 0x50 SWAP2 SWAP1 PUSH2 0x18B JUMP JUMPDEST PUSH2 0x89 JUMP JUMPDEST PUSH1 0x40 MLOAD PUSH2 0x62 SWAP2 SWAP1 PUSH2 0x1D3 JUMP JUMPDEST PUSH1 0x40 MLOAD DUP1 SWAP2 SUB SWAP1 RETURN JUMPDEST PUSH2 0x73 PUSH2 0xDD JUMP JUMPDEST PUSH1 0x40 MLOAD PUSH2 0x80 SWAP2 SWAP1 PUSH2 0x1FD JUMP JUMPDEST PUSH1 0x40 MLOAD DUP1 SWAP2 SUB SWAP1 RETURN JUMPDEST PUSH1 0x0 DUP1 PUSH1 0x0 SWAP1 POP PUSH1 0x1 DUP1 SLOAD SWAP1 POP DUP2 LT ISZERO PUSH2 0xD6 JUMPI PUSH1 0x1 DUP2 DUP2 SLOAD DUP2 LT PUSH2 0xB1 JUMPI PUSH2 0xB0 PUSH2 0x218 JUMP JUMPDEST JUMPDEST SWAP1 PUSH1 0x0 MSTORE PUSH1 0x20 PUSH1 0x0 KECCAK256 ADD SLOAD DUP4 SUB PUSH2 0xCC JUMPI PUSH1 0x1 SWAP2 POP POP PUSH2 0xD8 JUMP JUMPDEST PUSH1 0x0 SWAP2 POP POP PUSH2 0xD8 JUMP JUMPDEST POP JUMPDEST SWAP2 SWAP1 POP JUMP JUMPDEST PUSH1 0x0 DUP1 PUSH1 0x0 SWAP1 POP PUSH1 0x0 JUMPDEST PUSH1 0x0 DUP1 SLOAD SWAP1 POP DUP2 LT ISZERO PUSH2 0x148 JUMPI PUSH1 0x0 PUSH1 0x2 PUSH1 0x0 DUP4 DUP2 SLOAD DUP2 LT PUSH2 0x10C JUMPI PUSH2 0x10B PUSH2 0x218 JUMP JUMPDEST JUMPDEST SWAP1 PUSH1 0x0 MSTORE PUSH1 0x20 PUSH1 0x0 KECCAK256 ADD SLOAD PUSH2 0x121 SWAP2 SWAP1 PUSH2 0x2ED JUMP JUMPDEST SUB PUSH2 0x135 JUMPI DUP2 DUP1 PUSH2 0x131 SWAP1 PUSH2 0x276 JUMP JUMPDEST SWAP3 POP POP JUMPDEST DUP1 DUP1 PUSH2 0x140 SWAP1 PUSH2 0x276 JUMP JUMPDEST SWAP2 POP POP PUSH2 0xE7 JUMP JUMPDEST POP DUP1 SWAP2 POP POP SWAP1 JUMP JUMPDEST PUSH1 0x0 DUP1 REVERT JUMPDEST PUSH1 0x0 DUP2 SWAP1 POP SWAP2 SWAP1 POP JUMP JUMPDEST PUSH2 0x168 DUP2 PUSH2 0x155 JUMP JUMPDEST DUP2 EQ PUSH2 0x173 JUMPI PUSH1 0x0 DUP1 REVERT JUMPDEST POP JUMP JUMPDEST PUSH1 0x0 DUP2 CALLDATALOAD SWAP1 POP PUSH2 0x185 DUP2 PUSH2 0x15F JUMP JUMPDEST SWAP3 SWAP2 POP POP JUMP JUMPDEST PUSH1 0x0 PUSH1 0x20 DUP3 DUP5 SUB SLT ISZERO PUSH2 0x1A1 JUMPI PUSH2 0x1A0 PUSH2 0x150 JUMP JUMPDEST JUMPDEST PUSH1 0x0 PUSH2 0x1AF DUP5 DUP3 DUP6 ADD PUSH2 0x176 JUMP JUMPDEST SWAP2 POP POP SWAP3 SWAP2 POP POP JUMP JUMPDEST PUSH1 0x0 DUP2 ISZERO ISZERO SWAP1 POP SWAP2 SWAP1 POP JUMP JUMPDEST PUSH2 0x1CD DUP2 PUSH2 0x1B8 JUMP JUMPDEST DUP3 MSTORE POP POP JUMP JUMPDEST PUSH1 0x0 PUSH1 0x20 DUP3 ADD SWAP1 POP PUSH2 0x1E8 PUSH1 0x0 DUP4 ADD DUP5 PUSH2 0x1C4 JUMP JUMPDEST SWAP3 SWAP2 POP POP JUMP JUMPDEST PUSH2 0x1F7 DUP2 PUSH2 0x155 JUMP JUMPDEST DUP3 MSTORE POP POP JUMP JUMPDEST PUSH1 0x0 PUSH1 0x20 DUP3 ADD SWAP1 POP PUSH2 0x212 PUSH1 0x0 DUP4 ADD DUP5 PUSH2 0x1EE JUMP JUMPDEST SWAP3 SWAP2 POP POP JUMP JUMPDEST PUSH32 0x4E487B7100000000000000000000000000000000000000000000000000000000 PUSH1 0x0 MSTORE PUSH1 0x32 PUSH1 0x4 MSTORE PUSH1 0x24 PUSH1 0x0 REVERT JUMPDEST PUSH32 0x4E487B7100000000000000000000000000000000000000000000000000000000 PUSH1 0x0 MSTORE PUSH1 0x11 PUSH1 0x4 MSTORE PUSH1 0x24 PUSH1 0x0 REVERT JUMPDEST PUSH1 0x0 PUSH2 0x281 DUP3 PUSH2 0x155 JUMP JUMPDEST SWAP2 POP PUSH32 0xFFFFFFFFFFFFFFFFFFFFFFFFFFFFFFFFFFFFFFFFFFFFFFFFFFFFFFFFFFFFFFFF DUP3 SUB PUSH2 0x2B3 JUMPI PUSH2 0x2B2 PUSH2 0x247 JUMP JUMPDEST JUMPDEST PUSH1 0x1 DUP3 ADD SWAP1 POP SWAP2 SWAP1 POP JUMP JUMPDEST PUSH32 0x4E487B7100000000000000000000000000000000000000000000000000000000 PUSH1 0x0 MSTORE PUSH1 0x12 PUSH1 0x4 MSTORE PUSH1 0x24 PUSH1 0x0 REVERT JUMPDEST PUSH1 0x0 PUSH2 0x2F8 DUP3 PUSH2 0x155 JUMP JUMPDEST SWAP2 POP PUSH2 0x303 DUP4 PUSH2 0x155 JUMP JUMPDEST SWAP3 POP DUP3 PUSH2 0x313 JUMPI PUSH2 0x312 PUSH2 0x2BE JUMP JUMPDEST JUMPDEST DUP3 DUP3 MOD SWAP1 POP SWAP3 SWAP2 POP POP JUMP INVALID LOG2 PUSH5 0x6970667358 0x22 SLT KECCAK256 PUSH4 0x8069504C 0xC5 0x2A 0xB5 SWAP12 0xD7 MLOAD 0x4A 0xB5 EXTCODEHASH SWAP14 0xD5 0x5D MOD PUSH6 0xF919874D7024 LT PUSH15 0x3D0342383664736F6C634300080F00 CALLER "
				},
				"gasEstimates": {
					"creation": {
						"codeDepositCost": "170400",
						"executionCost": "infinite",
						"totalCost": "infinite"
					},
					"external": {
						"evennumber()": "infinite",
						"loopNumblist(uint256)": "7047"
					}
				},
				"methodIdentifiers": {
					"evennumber()": "59899796",
					"loopNumblist(uint256)": "1dee3f59"
				}
			},
			"storageLayout": {
				"storage": [
					{
						"astId": 35,
						"contract": "getEvenNO/evenNO.sol:longloop",
						"label": "longlist",
						"offset": 0,
						"slot": "0",
						"type": "t_array(t_uint256)dyn_storage"
					},
					{
						"astId": 43,
						"contract": "getEvenNO/evenNO.sol:longloop",
						"label": "numberlist",
						"offset": 0,
						"slot": "1",
						"type": "t_array(t_uint256)dyn_storage"
					}
				],
				"types": {
					"t_array(t_uint256)dyn_storage": {
						"base": "t_uint256",
						"encoding": "dynamic_array",
						"label": "uint256[]",
						"numberOfBytes": "32"
					},
					"t_uint256": {
						"encoding": "inplace",
						"label": "uint256",
						"numberOfBytes": "32"
					}
				}
			},
			"userdoc": {
				"kind": "user",
				"methods": {},
				"version": 1
			}
		}
	}
}