{
	"data": {
		"bytecode": {
			"linkReferences": {},
			"object": "6080604052601e600055600c600155602f60025534801561001f57600080fd5b506102568061002f6000396000f3fe608060405234801561001057600080fd5b506004361061002b5760003560e01c80634bb278f314610030575b600080fd5b61003861004e565b60405161004591906100e3565b60405180910390f35b600080601790506002546000541015801561006c5750600254600154105b6100ab576040517f08c379a00000000000000000000000000000000000000000000000000000000081526004016100a29061015b565b60405180910390fd5b60015481826100ba91906101aa565b6100c491906101ec565b91505090565b6000819050919050565b6100dd816100ca565b82525050565b60006020820190506100f860008301846100d4565b92915050565b600082825260208201905092915050565b7f3233000000000000000000000000000000000000000000000000000000000000600082015250565b60006101456002836100fe565b91506101508261010f565b602082019050919050565b6000602082019050818103600083015261017481610138565b9050919050565b7f4e487b7100000000000000000000000000000000000000000000000000000000600052601160045260246000fd5b60006101b5826100ca565b91506101c0836100ca565b92508282026101ce816100ca565b915082820484148315176101e5576101e461017b565b5b5092915050565b60006101f7826100ca565b9150610202836100ca565b925082820390508181111561021a5761021961017b565b5b9291505056fea26469706673582212203ea33a8f36eafd7b954d20f41f915f30f0dac7077b7c0ba0c0ca14aa221c032b64736f6c63430008110033",
			"opcodes": "PUSH1 0x80 PUSH1 0x40 MSTORE PUSH1 0x1E PUSH1 0x0 SSTORE PUSH1 0xC PUSH1 0x1 SSTORE PUSH1 0x2F PUSH1 0x2 SSTORE CALLVALUE DUP1 ISZERO PUSH2 0x1F JUMPI PUSH1 0x0 DUP1 REVERT JUMPDEST POP PUSH2 0x256 DUP1 PUSH2 0x2F PUSH1 0x0 CODECOPY PUSH1 0x0 RETURN INVALID PUSH1 0x80 PUSH1 0x40 MSTORE CALLVALUE DUP1 ISZERO PUSH2 0x10 JUMPI PUSH1 0x0 DUP1 REVERT JUMPDEST POP PUSH1 0x4 CALLDATASIZE LT PUSH2 0x2B JUMPI PUSH1 0x0 CALLDATALOAD PUSH1 0xE0 SHR DUP1 PUSH4 0x4BB278F3 EQ PUSH2 0x30 JUMPI JUMPDEST PUSH1 0x0 DUP1 REVERT JUMPDEST PUSH2 0x38 PUSH2 0x4E JUMP JUMPDEST PUSH1 0x40 MLOAD PUSH2 0x45 SWAP2 SWAP1 PUSH2 0xE3 JUMP JUMPDEST PUSH1 0x40 MLOAD DUP1 SWAP2 SUB SWAP1 RETURN JUMPDEST PUSH1 0x0 DUP1 PUSH1 0x17 SWAP1 POP PUSH1 0x2 SLOAD PUSH1 0x0 SLOAD LT ISZERO DUP1 ISZERO PUSH2 0x6C JUMPI POP PUSH1 0x2 SLOAD PUSH1 0x1 SLOAD LT JUMPDEST PUSH2 0xAB JUMPI PUSH1 0x40 MLOAD PUSH32 0x8C379A000000000000000000000000000000000000000000000000000000000 DUP2 MSTORE PUSH1 0x4 ADD PUSH2 0xA2 SWAP1 PUSH2 0x15B JUMP JUMPDEST PUSH1 0x40 MLOAD DUP1 SWAP2 SUB SWAP1 REVERT JUMPDEST PUSH1 0x1 SLOAD DUP2 DUP3 PUSH2 0xBA SWAP2 SWAP1 PUSH2 0x1AA JUMP JUMPDEST PUSH2 0xC4 SWAP2 SWAP1 PUSH2 0x1EC JUMP JUMPDEST SWAP2 POP POP SWAP1 JUMP JUMPDEST PUSH1 0x0 DUP2 SWAP1 POP SWAP2 SWAP1 POP JUMP JUMPDEST PUSH2 0xDD DUP2 PUSH2 0xCA JUMP JUMPDEST DUP3 MSTORE POP POP JUMP JUMPDEST PUSH1 0x0 PUSH1 0x20 DUP3 ADD SWAP1 POP PUSH2 0xF8 PUSH1 0x0 DUP4 ADD DUP5 PUSH2 0xD4 JUMP JUMPDEST SWAP3 SWAP2 POP POP JUMP JUMPDEST PUSH1 0x0 DUP3 DUP3 MSTORE PUSH1 0x20 DUP3 ADD SWAP1 POP SWAP3 SWAP2 POP POP JUMP JUMPDEST PUSH32 0x3233000000000000000000000000000000000000000000000000000000000000 PUSH1 0x0 DUP3 ADD MSTORE POP JUMP JUMPDEST PUSH1 0x0 PUSH2 0x145 PUSH1 0x2 DUP4 PUSH2 0xFE JUMP JUMPDEST SWAP2 POP PUSH2 0x150 DUP3 PUSH2 0x10F JUMP JUMPDEST PUSH1 0x20 DUP3 ADD SWAP1 POP SWAP2 SWAP1 POP JUMP JUMPDEST PUSH1 0x0 PUSH1 0x20 DUP3 ADD SWAP1 POP DUP2 DUP2 SUB PUSH1 0x0 DUP4 ADD MSTORE PUSH2 0x174 DUP2 PUSH2 0x138 JUMP JUMPDEST SWAP1 POP SWAP2 SWAP1 POP JUMP JUMPDEST PUSH32 0x4E487B7100000000000000000000000000000000000000000000000000000000 PUSH1 0x0 MSTORE PUSH1 0x11 PUSH1 0x4 MSTORE PUSH1 0x24 PUSH1 0x0 REVERT JUMPDEST PUSH1 0x0 PUSH2 0x1B5 DUP3 PUSH2 0xCA JUMP JUMPDEST SWAP2 POP PUSH2 0x1C0 DUP4 PUSH2 0xCA JUMP JUMPDEST SWAP3 POP DUP3 DUP3 MUL PUSH2 0x1CE DUP2 PUSH2 0xCA JUMP JUMPDEST SWAP2 POP DUP3 DUP3 DIV DUP5 EQ DUP4 ISZERO OR PUSH2 0x1E5 JUMPI PUSH2 0x1E4 PUSH2 0x17B JUMP JUMPDEST JUMPDEST POP SWAP3 SWAP2 POP POP JUMP JUMPDEST PUSH1 0x0 PUSH2 0x1F7 DUP3 PUSH2 0xCA JUMP JUMPDEST SWAP2 POP PUSH2 0x202 DUP4 PUSH2 0xCA JUMP JUMPDEST SWAP3 POP DUP3 DUP3 SUB SWAP1 POP DUP2 DUP2 GT ISZERO PUSH2 0x21A JUMPI PUSH2 0x219 PUSH2 0x17B JUMP JUMPDEST JUMPDEST SWAP3 SWAP2 POP POP JUMP INVALID LOG2 PUSH5 0x6970667358 0x22 SLT KECCAK256 RETURNDATACOPY LOG3 GASPRICE DUP16 CALLDATASIZE 0xEA REVERT PUSH28 0x954D20F41F915F30F0DAC7077B7C0BA0C0CA14AA221C032B64736F6C PUSH4 0x43000811 STOP CALLER "
		},
		"gasEstimates": {
			"creation": {
				"codeDepositCost": "119600",
				"executionCost": "66483",
				"totalCost": "186083"
			},
			"external": {
				"finalize()": "infinite"
			}
		},
		"methodIdentifiers": {
			"finalize()": "4bb278f3"
		}
	},
	"abi": [
		{
			"inputs": [],
			"name": "finalize",
			"outputs": [
				{
					"internalType": "uint256",
					"name": "",
					"type": "uint256"
				}
			],
			"stateMutability": "view",
			"type": "function"
		}
	]
}