{
	"data": {
		"bytecode": {
			"linkReferences": {},
			"object": "60806040526007600055600360015534801561001a57600080fd5b506103f88061002a6000396000f3fe608060405234801561001057600080fd5b50600436106100365760003560e01c8063715e88081461003b57806371ca2ecf14610059575b600080fd5b610043610077565b604051610050919061017f565b60405180910390f35b6100616100e7565b60405161006e919061017f565b60405180910390f35b60008060015460005411801561008f57506007600054145b6100ce576040517f08c379a00000000000000000000000000000000000000000000000000000000081526004016100c5906101f7565b60405180910390fd5b6001546000546100de9190610246565b90508091505090565b6000806011905060006002905081811180156101035750808214155b610142576040517f08c379a0000000000000000000000000000000000000000000000000000000008152600401610139906102e8565b60405180910390fd5b600081836101509190610308565b9050818161015e9190610391565b935050505090565b6000819050919050565b61017981610166565b82525050565b60006020820190506101946000830184610170565b92915050565b600082825260208201905092915050565b7f636f6e646974696f6e206469646e2774206d6565740000000000000000000000600082015250565b60006101e160158361019a565b91506101ec826101ab565b602082019050919050565b60006020820190508181036000830152610210816101d4565b9050919050565b7f4e487b7100000000000000000000000000000000000000000000000000000000600052601160045260246000fd5b600061025182610166565b915061025c83610166565b9250827fffffffffffffffffffffffffffffffffffffffffffffffffffffffffffffffff0382111561029157610290610217565b5b828201905092915050565b7f6572726f72000000000000000000000000000000000000000000000000000000600082015250565b60006102d260058361019a565b91506102dd8261029c565b602082019050919050565b60006020820190508181036000830152610301816102c5565b9050919050565b600061031382610166565b915061031e83610166565b9250817fffffffffffffffffffffffffffffffffffffffffffffffffffffffffffffffff048311821515161561035757610356610217565b5b828202905092915050565b7f4e487b7100000000000000000000000000000000000000000000000000000000600052601260045260246000fd5b600061039c82610166565b91506103a783610166565b9250826103b7576103b6610362565b5b82820490509291505056fea26469706673582212200aec275fd9560971b277267a6be3670ce066cf5949b2bd3366c578ce9b8bb8af64736f6c634300080c0033",
			"opcodes": "PUSH1 0x80 PUSH1 0x40 MSTORE PUSH1 0x7 PUSH1 0x0 SSTORE PUSH1 0x3 PUSH1 0x1 SSTORE CALLVALUE DUP1 ISZERO PUSH2 0x1A JUMPI PUSH1 0x0 DUP1 REVERT JUMPDEST POP PUSH2 0x3F8 DUP1 PUSH2 0x2A PUSH1 0x0 CODECOPY PUSH1 0x0 RETURN INVALID PUSH1 0x80 PUSH1 0x40 MSTORE CALLVALUE DUP1 ISZERO PUSH2 0x10 JUMPI PUSH1 0x0 DUP1 REVERT JUMPDEST POP PUSH1 0x4 CALLDATASIZE LT PUSH2 0x36 JUMPI PUSH1 0x0 CALLDATALOAD PUSH1 0xE0 SHR DUP1 PUSH4 0x715E8808 EQ PUSH2 0x3B JUMPI DUP1 PUSH4 0x71CA2ECF EQ PUSH2 0x59 JUMPI JUMPDEST PUSH1 0x0 DUP1 REVERT JUMPDEST PUSH2 0x43 PUSH2 0x77 JUMP JUMPDEST PUSH1 0x40 MLOAD PUSH2 0x50 SWAP2 SWAP1 PUSH2 0x17F JUMP JUMPDEST PUSH1 0x40 MLOAD DUP1 SWAP2 SUB SWAP1 RETURN JUMPDEST PUSH2 0x61 PUSH2 0xE7 JUMP JUMPDEST PUSH1 0x40 MLOAD PUSH2 0x6E SWAP2 SWAP1 PUSH2 0x17F JUMP JUMPDEST PUSH1 0x40 MLOAD DUP1 SWAP2 SUB SWAP1 RETURN JUMPDEST PUSH1 0x0 DUP1 PUSH1 0x1 SLOAD PUSH1 0x0 SLOAD GT DUP1 ISZERO PUSH2 0x8F JUMPI POP PUSH1 0x7 PUSH1 0x0 SLOAD EQ JUMPDEST PUSH2 0xCE JUMPI PUSH1 0x40 MLOAD PUSH32 0x8C379A000000000000000000000000000000000000000000000000000000000 DUP2 MSTORE PUSH1 0x4 ADD PUSH2 0xC5 SWAP1 PUSH2 0x1F7 JUMP JUMPDEST PUSH1 0x40 MLOAD DUP1 SWAP2 SUB SWAP1 REVERT JUMPDEST PUSH1 0x1 SLOAD PUSH1 0x0 SLOAD PUSH2 0xDE SWAP2 SWAP1 PUSH2 0x246 JUMP JUMPDEST SWAP1 POP DUP1 SWAP2 POP POP SWAP1 JUMP JUMPDEST PUSH1 0x0 DUP1 PUSH1 0x11 SWAP1 POP PUSH1 0x0 PUSH1 0x2 SWAP1 POP DUP2 DUP2 GT DUP1 ISZERO PUSH2 0x103 JUMPI POP DUP1 DUP3 EQ ISZERO JUMPDEST PUSH2 0x142 JUMPI PUSH1 0x40 MLOAD PUSH32 0x8C379A000000000000000000000000000000000000000000000000000000000 DUP2 MSTORE PUSH1 0x4 ADD PUSH2 0x139 SWAP1 PUSH2 0x2E8 JUMP JUMPDEST PUSH1 0x40 MLOAD DUP1 SWAP2 SUB SWAP1 REVERT JUMPDEST PUSH1 0x0 DUP2 DUP4 PUSH2 0x150 SWAP2 SWAP1 PUSH2 0x308 JUMP JUMPDEST SWAP1 POP DUP2 DUP2 PUSH2 0x15E SWAP2 SWAP1 PUSH2 0x391 JUMP JUMPDEST SWAP4 POP POP POP POP SWAP1 JUMP JUMPDEST PUSH1 0x0 DUP2 SWAP1 POP SWAP2 SWAP1 POP JUMP JUMPDEST PUSH2 0x179 DUP2 PUSH2 0x166 JUMP JUMPDEST DUP3 MSTORE POP POP JUMP JUMPDEST PUSH1 0x0 PUSH1 0x20 DUP3 ADD SWAP1 POP PUSH2 0x194 PUSH1 0x0 DUP4 ADD DUP5 PUSH2 0x170 JUMP JUMPDEST SWAP3 SWAP2 POP POP JUMP JUMPDEST PUSH1 0x0 DUP3 DUP3 MSTORE PUSH1 0x20 DUP3 ADD SWAP1 POP SWAP3 SWAP2 POP POP JUMP JUMPDEST PUSH32 0x636F6E646974696F6E206469646E2774206D6565740000000000000000000000 PUSH1 0x0 DUP3 ADD MSTORE POP JUMP JUMPDEST PUSH1 0x0 PUSH2 0x1E1 PUSH1 0x15 DUP4 PUSH2 0x19A JUMP JUMPDEST SWAP2 POP PUSH2 0x1EC DUP3 PUSH2 0x1AB JUMP JUMPDEST PUSH1 0x20 DUP3 ADD SWAP1 POP SWAP2 SWAP1 POP JUMP JUMPDEST PUSH1 0x0 PUSH1 0x20 DUP3 ADD SWAP1 POP DUP2 DUP2 SUB PUSH1 0x0 DUP4 ADD MSTORE PUSH2 0x210 DUP2 PUSH2 0x1D4 JUMP JUMPDEST SWAP1 POP SWAP2 SWAP1 POP JUMP JUMPDEST PUSH32 0x4E487B7100000000000000000000000000000000000000000000000000000000 PUSH1 0x0 MSTORE PUSH1 0x11 PUSH1 0x4 MSTORE PUSH1 0x24 PUSH1 0x0 REVERT JUMPDEST PUSH1 0x0 PUSH2 0x251 DUP3 PUSH2 0x166 JUMP JUMPDEST SWAP2 POP PUSH2 0x25C DUP4 PUSH2 0x166 JUMP JUMPDEST SWAP3 POP DUP3 PUSH32 0xFFFFFFFFFFFFFFFFFFFFFFFFFFFFFFFFFFFFFFFFFFFFFFFFFFFFFFFFFFFFFFFF SUB DUP3 GT ISZERO PUSH2 0x291 JUMPI PUSH2 0x290 PUSH2 0x217 JUMP JUMPDEST JUMPDEST DUP3 DUP3 ADD SWAP1 POP SWAP3 SWAP2 POP POP JUMP JUMPDEST PUSH32 0x6572726F72000000000000000000000000000000000000000000000000000000 PUSH1 0x0 DUP3 ADD MSTORE POP JUMP JUMPDEST PUSH1 0x0 PUSH2 0x2D2 PUSH1 0x5 DUP4 PUSH2 0x19A JUMP JUMPDEST SWAP2 POP PUSH2 0x2DD DUP3 PUSH2 0x29C JUMP JUMPDEST PUSH1 0x20 DUP3 ADD SWAP1 POP SWAP2 SWAP1 POP JUMP JUMPDEST PUSH1 0x0 PUSH1 0x20 DUP3 ADD SWAP1 POP DUP2 DUP2 SUB PUSH1 0x0 DUP4 ADD MSTORE PUSH2 0x301 DUP2 PUSH2 0x2C5 JUMP JUMPDEST SWAP1 POP SWAP2 SWAP1 POP JUMP JUMPDEST PUSH1 0x0 PUSH2 0x313 DUP3 PUSH2 0x166 JUMP JUMPDEST SWAP2 POP PUSH2 0x31E DUP4 PUSH2 0x166 JUMP JUMPDEST SWAP3 POP DUP2 PUSH32 0xFFFFFFFFFFFFFFFFFFFFFFFFFFFFFFFFFFFFFFFFFFFFFFFFFFFFFFFFFFFFFFFF DIV DUP4 GT DUP3 ISZERO ISZERO AND ISZERO PUSH2 0x357 JUMPI PUSH2 0x356 PUSH2 0x217 JUMP JUMPDEST JUMPDEST DUP3 DUP3 MUL SWAP1 POP SWAP3 SWAP2 POP POP JUMP JUMPDEST PUSH32 0x4E487B7100000000000000000000000000000000000000000000000000000000 PUSH1 0x0 MSTORE PUSH1 0x12 PUSH1 0x4 MSTORE PUSH1 0x24 PUSH1 0x0 REVERT JUMPDEST PUSH1 0x0 PUSH2 0x39C DUP3 PUSH2 0x166 JUMP JUMPDEST SWAP2 POP PUSH2 0x3A7 DUP4 PUSH2 0x166 JUMP JUMPDEST SWAP3 POP DUP3 PUSH2 0x3B7 JUMPI PUSH2 0x3B6 PUSH2 0x362 JUMP JUMPDEST JUMPDEST DUP3 DUP3 DIV SWAP1 POP SWAP3 SWAP2 POP POP JUMP INVALID LOG2 PUSH5 0x6970667358 0x22 SLT KECCAK256 EXP 0xEC 0x27 0x5F 0xD9 JUMP MULMOD PUSH18 0xB277267A6BE3670CE066CF5949B2BD3366C5 PUSH25 0xCE9B8BB8AF64736F6C634300080C0033000000000000000000 "
		},
		"gasEstimates": {
			"creation": {
				"codeDepositCost": "203200",
				"executionCost": "44457",
				"totalCost": "247657"
			},
			"external": {
				"assignment()": "501",
				"logicfunction()": "infinite"
			}
		},
		"methodIdentifiers": {
			"assignment()": "71ca2ecf",
			"logicfunction()": "715e8808"
		}
	},
	"abi": [
		{
			"inputs": [],
			"name": "assignment",
			"outputs": [
				{
					"internalType": "uint256",
					"name": "",
					"type": "uint256"
				}
			],
			"stateMutability": "pure",
			"type": "function"
		},
		{
			"inputs": [],
			"name": "logicfunction",
			"outputs": [
				{
					"internalType": "uint256",
					"name": "",
					"type": "uint256"
				}
			],
			"stateMutability": "view",
			"type": "function"
		}
	]
}